:020000040800F2
:10000000580800202D5C0008855C0008895C000809
:100010008D5C0008915C0008955C00080000000001
:10002000000000000000000000000000995C0008D3
:100030009D5C000800000000A15C0008EF3600088D
:10004000A95C0008AD5C0008B15C0008B55C000864
:10005000B95C0008BD5C0008C15C0008C55C000814
:10006000C95C0008CD5C0008D15C0008D55C0008C4
:10007000D95C0008DD5C0008E15C0008E55C000874
:10008000E95C0008ED5C0008F15C0008000000007D
:10009000000000000000000000000000F55C000807
:1000A000F95C0008FD5C0008015D0008055D0008C2
:1000B000095D00080D5D0008115D0008155D000870
:1000C000195D00081D5D0008215D0008255D000820
:1000D000295D000859500008A5390008355D000861
:1000E000395D00083D5D0008415D0008000000002A
:1000F0000000000000000000000000000000000000
:1001000000000000000000000000000000000000EF
:100110000000000000000000455D0008495D000887
:1001200010B504460846A16001F03BFB28B9A06861
:10013000417911291CBF01898181DFF8BC0C00685D
:10014000002102F021FAA06801F00AFA00E08847D5
:10015000A068BDE8104001F01DBA10B504460120AA
:100160002073A06801F016FAA0684079112808BF32
:10017000FC2104D0002816BF01280F21F021DFF850
:10018000780C006802F000FAA0688089E08110BD58
:1001900010B50446207B90B1002020730021DFF8C9
:1001A000580C006802F0F0F9DFF8A40C006802F0C7
:1001B0007AFB617C6068BDE8104001F098BB10BD1F
:1001C00080B5017B51B1002101738168C0898881AC
:1001D0000021DFF8240C006802F0D6F9DFF8700C7B
:1001E0000068BDE8024002F05EBB10B5044621681D
:1001F000C96888470220207410BD38B50446002025
:1002000020730022DFF8F05B0146286802F0E9F96C
:1002100028680FF2100102F027FA4FF4FA606082AA
:1002200031BD000050534C2D3336303400000000F7
:100230002DE038B531E038B50446002020730022A7
:10024000DFF8B45B0146286802F0CBF928680FF2AA
:10025000340102F009FA28680022012102F0C1F9F4
:100260002868AFA102F000FA607C0109286802F05A
:10027000BEF9607C00F00F01286802F0B8F9002098
:10028000608231BD4572722D0000000000BF022265
:10029000027400200870704738B50446DFF8B00BD0
:1002A00000680D4602F0FAFA02202074002028703F
:1002B00031BD10B504460020607420732075E075D0
:1002C00001206075A075DFF88C0B006801F06FFFEE
:1002D000DFF8240B0068002102F056F941F2883063
:1002E000608210BDF8B5DFF86C6BDFF86C5B3268CC
:1002F000926853689B6B9B8904462868016B012BAD
:100300002BD191F8E220002A1EBF426B92F8E22026
:10031000002A04BF627D002A00F0C280406BB1F861
:10032000EE20B0F8EE305A436423B2FBF3F501F14E
:10033000DC0200239380C1F8DC30937100F1DC0112
:1003400000228A80C0F8DC208A71207B00283AD005
:10035000607C90BBDFF8A07A41E091F8E230002B9E
:100360004AD1617D002952D0217B11B1617C0029E5
:100370004DD05168096C898901290DD002F09BFE8E
:1003800050B9306880684068C06B8089002837D1D8
:10039000286802F08EFE98B3DFF85C7A3868002295
:1003A000002102F01EF92868006BB0F8EE103868E2
:1003B0000223042202F065F927E0012803D1DFF8C7
:1003C000387A00210CE0DFF8307A3868002102F03A
:1003D00008F938680FF24C1102F046F900220121A9
:1003E000386802F0FEF8386883230422294602F0B8
:1003F00048F90020607552E0002381F8E230B3E74D
:1004000060684068006801F0C5F8002060752868E1
:10041000416B91F8E720002A42D0227B12B1627C26
:10042000012A3DD0B1F8E820B0F840309A4238BFF8
:10043000012208D3E37D00222BB101F1DC039A8075
:10044000C1F8DC209A71E275E27D52B302F096FEAB
:1004500030B9306880684068016D898901290CD104
:10046000DFF8947938680022012102F0BAF8386880
:100470000FF2B80102F0F8F810E0C06C8089012892
:1004800047D0DFF8747938680022012102F0A9F81A
:10049000032304220021386802F0F3F80020A0753D
:1004A000F1BD91F8E2201AB1002281F8E22002E0C9
:1004B000A17D0029F2D0316889684968096C898971
:1004C00001290CD002F0F5FD48B930688068406819
:1004D000C06B808988B9286802F0EDFD68B1DFF84B
:1004E000187938680022012102F07BF82868406BF7
:1004F000B0F8EE1003230422CDE73068806840682E
:10050000C06C8089012804D0286802F037FE0028DA
:10051000B7D060684068406801F03CF8BEE7000072
:10052000452D000020502D200000000020646E505A
:100530000000000038B50546DFF81809006880683B
:100540000C4641688A689289012A22780CD1012AD6
:1005500018BF022A03D0082A18BF102A36D1022059
:100560006874032028748FE0012A13D1287B08B116
:10057000687CB0B12846296889688847002068747B
:10058000686840680068A860284629684968884704
:10059000012031E0022A19D1287B38B1687C01287A
:1005A00004D129688968284688476DE029688968E8
:1005B0002846884701206874686840684068A860D9
:1005C0002846296849688847012015E0042A05D192
:1005D000296889682846BDE834400847102A26D192
:1005E0002968287B50B96874686840680068A8600A
:1005F0002846496888470020287545E089682846CC
:100600008847687C002804BF287D00283CD1012051
:100610006874686840684068A86028462968496826
:100620008847DFF82C08006802F038F92CE0902A9F
:1006300009D1DFF81C08006802F030F91C2068744A
:100640000320287420E0812A08D128462968C96837
:100650008847032068740520287415E0822A08D191
:1006600028462968C96888470420687405202874CA
:100670000AE0032A0AD1896B8B895A1E9241D20F54
:100680008A810E2101F033F90020207031BD70B550
:10069000DFF8C0670446306880680D4641688968A5
:1006A0008989012902D10020287070BD217B89B37E
:1006B00095F90010A06801F08EF820B1A06800F054
:1006C00069FF00202870306880684068406B80892E
:1006D00000283FD1607C88B9A0688189DFF878075D
:1006E0000068856B284602F009F9688695F836108F
:1006F00021B1014605F1100002F056FD607C012891
:1007000028D1A0688189DFF850070068C06B02F02B
:100710006AFD1FE04068006B8089022807D001282D
:1007200016D1DFF83407006802F028FD80B90020F8
:100730006074606840680068A0602046216849686D
:100740008847DFF80C07006802F0A8F8002028703E
:10075000002028700120207570BD10B50446207B54
:1007600080B1DFF8F0062168006880684068406B5F
:1007700080890028204603D1BDE8104089680847D9
:10078000C968E4E410BD38B50446207BA8B3607C9A
:1007900088B920730021DFF86006006801F0F4FEDC
:1007A000DFF8AC06006802F07EF8DFF8A806006803
:1007B00001F0E2FC02E02046FFF7EAFC607C88B929
:1007C000A0688189DFF890060068856B284602F0F2
:1007D00095F8688695F8361021B1014605F11000AC
:1007E00002F0E2FC607C012807D1A0688189DFF873
:1007F00068060068C06B02F0F6FC01206075A07509
:1008000031BD10B50446607C0A28B1BF002101212A
:100810000A3860742173204621684968884728E2B5
:1008200038B50C460546207810280AD1687C29681E
:100830000A28284602D1C968884711E08968884794
:100840000EE0012818BF022804D12968C96828468B
:10085000884705E004280CD129688968284688471C
:10086000DFF8EC05006802F01EF802202874002072
:10087000207031BD38B50C46054694F900000128BA
:1008800020DB687C0A282DDA401C6874C0B22A6814
:100890000A2807DAD168284688472968496828461F
:1008A00088471DE0DFF8AC05006880684068016F8C
:1008B000126828469047DFF82C0C0068002101F0F0
:1008C00063FE0DE000280DD5687C58B1401E6874A9
:1008D00028462968C968884729684968284688479A
:1008E0000020207031BD10B5044660684168096879
:1008F0008989E181406840688089A082DFF85405D9
:10090000617C006801F06CFCDFF8D80B0068FF2107
:1009100001F03AFE60684068006800F03BFE6068E5
:100920004068406815E418B4DFF8BC1B0A68017B16
:1009300069B141684B681B68C4899C8149684968F2
:10094000838A8B81417C104614BC01F069BC002075
:10095000107611BC704741684A681268C389938158
:1009600049684968808A8881704710B5044600202C
:10097000207301206075607C1C2804BF207D60749A
:100980006168607C4968226851F82010126820462E
:100990009047607C022802BFA068808901280CBFB4
:1009A0004FF47A7042F21070608210BD10B50446A8
:1009B000607C0A280ED1DFF8340B006890F84410F0
:1009C000002904BF617D00291CD002F063FB0146B1
:1009D000A06812E00B2804BF207B002812D1DFF8AA
:1009E000100B0078002804BF607D00280AD0DFF8D3
:1009F000FC1AA0680968B1F84210818100F0CAFDB4
:100A00000020607510BDF8B5DFF848640446306812
:100A100080684068806880890D46012804BF207B7B
:100A2000002817D12878102800F0998001281CBFD1
:100A30000228082844D0902870D1DFF814040068F8
:100A400001F02CFF42F21070608220462168496854
:100A5000884784E0287810285CD1607C10B9042095
:100A600020747CE0012804D10A20607404202074E2
:100A700075E01A2817D1A0688089012828D1DFF8ED
:100A80007873386801F098FD617C306801F00BFBE9
:100A9000386801F0A0FDDFF8B803006801F003FF3B
:100AA000022020745BE01B2808D1A06880890128FF
:100AB0000ED1002060740720207450E01C2807D15C
:100AC000DFF88C03006801F0EEFE0220207446E09F
:100AD000A068C1884089814243D0207B21680028DA
:100AE000204607D149688847C3480068802101F043
:100AF0004BFD34E089688847617C306801F0D3FAA7
:100B0000607C022802BFA0688089012827D10220CA
:100B1000207424E0012818BF022801D090280ED1AB
:100B20002046216889688847617C306801F0BBFAFB
:100B3000C748006801F0B7FE022020740FE00428C7
:100B40000FD12046216889688847617C306801F0B0
:100B5000AAFADFF89809006802F0A2FA08B10020AA
:100B60002870F1BD38B50D46DFF87C190968896831
:100B700049688968898904460129207B05D110B11B
:100B8000607C022802D0FFF791BB48B195F90010B4
:100B9000A06800F020FE30B3A06800F0FBFC20E06D
:100BA000285601280CDB6068617C027A521E914253
:100BB00019DA491C6174C9B2406850F821100AE082
:100BC000002810D5617C71B1481E6074C0B26168A4
:100BD000496851F820102268126820469047607CCE
:100BE000207500202870607C0A2804BF01206075F1
:100BF00031BD10B50446607C0B2806D1207B60B166
:100C00002168C9682046FFF7A2BA0A2805D02168E2
:100C1000C968204688470220207410BD10B50446DC
:100C2000607CC109217500F07F006074894800680C
:100C300080684068806AA061012060756168607C9E
:100C40004968226851F82010126820469047207D9C
:100C500020B921684968204688470AE000202073AF
:100C6000607C07280CBF0F21FF216348006801F05A
:100C70008BFC42F21070608210BD38B50446207BB8
:100C800068BB754D286802F00BFA617C032901D11D
:100C9000C00706E0042901D1800702E0052902D13E
:100CA00040071CD403E0072919D1000706D468487F
:100CB000006801F0F8FD0220207431BD286890F82A
:100CC0004410002904BF617D002908D002F0E2F938
:100CD0000146A069818100F05DFC0020607531BD96
:100CE00038B50C4605462078102811D1287B296894
:100CF0000028284602D14968884779E089688847F2
:100D0000DFF8E807006802F0CDF9022028746FE0F0
:100D100001281ED12846296889688847687C0328ED
:100D200018BF07280DD003206874686840682A68D7
:100D3000C16812682846904729684968284688474C
:100D400056E0DFF8A807006802F0ACF9022028742A
:100D50004EE002281ED12846296889688847687CA9
:100D6000042818BF07280DD00420687468684068FC
:100D70002A68016912682846904729684968284608
:100D8000884735E0DFF86407006802F08BF902203D
:100D900028742DE003281ED12846296889688847D1
:100DA000687C052818BF07280DD00520687468687E
:100DB00040682A684169126828469047296849684E
:100DC0002846884714E0DFF82407006802F06AF933
:100DD000022028740CE004280CD128462968896870
:100DE0008847DFF80807006802F05CF902202874E1
:100DF0000020207031BD00000000002038B5D9E08F
:100E000038B50446207B08B32168C9682046884766
:100E1000207DC8B1607CDFF8CC5607280BD1DFF805
:100E2000CC06006802F036F9A1698881084600F016
:100E3000B1FB0F2103E0A06800F0ACFBFF212868A4
:100E4000BDE8344001F0A0BB0220207431BD000099
:100E5000040000200C0000201000002010B5044603
:100E6000002020736168607C4968226851F8201076
:100E7000126820469047FCE638B50D4604462878AF
:100E8000010604D52168C968204688478CE00128FE
:100E90001ED1207B21680028204613D0896888470E
:100EA000DFF84406006801F0BEF8607C68B10020FD
:100EB0006074606840682268016812682046904744
:100EC000216820464968884770E0022020746DE060
:100ED00002281FD1207B21680028204614D0896871
:100EE0008847DFF80406006801F09DF8607C01285F
:100EF0000DD0012060746068406822684168126803
:100F00002046904721682046496888474EE00220E5
:100F100020744BE003281ED1207B21680028204646
:100F200014D089688847DFF8C005006801F07BF8B5
:100F3000607C02280DD002206074606840682268DE
:100F40008168126820469047216820464968884792
:100F50002CE020742AE0102820D1216889682046DE
:100F60008847DFF88405006801F05DF86068617CFF
:100F7000027A521E91420EDA491C6174C9B240686D
:100F8000226850F82110126820469047216849686D
:100F9000204688470AE00220207407E0042807D191
:100FA0002046216889688847022020740020287024
:100FB00031BD38B504460D46207B50B195F900107F
:100FC000A06800F008FC20B1A06800F0E3FA00205F
:100FD000287031BD38B5044601202073002060829E
:100FE000207560750021DFF80455286802F068F864
:100FF000286801F09BFE6168607C4968226851F8AE
:101000002010126820469047BDE83440DFF8D40431
:1010100000680F2101F0B8BA38B504460D46207BB0
:1010200050B195F90010A06800F0D5FB20B1A06880
:1010300000F0B0FA00202870607CDFF8B05448B9A6
:10104000A06881892868806B01F058FC6168496854
:1010500049688881607C022809D1A0688189286854
:10106000806B01F04BFC61684968C9688881607CCD
:10107000042809D1A06881892868C06B01F03EFC72
:101080006168496849698881607C062809D1A0683F
:1010900081892868C06B01F031FC61684968C969C1
:1010A0008881A068417906290BD181892868806BE5
:1010B000418690F8362012B1103002F075F8012008
:1010C0002075A068417907290BD181892868C06BF8
:1010D000418690F8362012B1103002F094F80120C9
:1010E000607531BDF8B50E4605463078DFF8FC4333
:1010F000012819D1697CE1B1284600F0D8F8687C54
:10110000401E6874C0B2696849682A6851F82010A6
:10111000126828469047687C072851D16868406863
:10112000806900F037FA4BE0022803D1687C082878
:1011300005DBF1BD102846D1687C082810DA01468D
:10114000284600F0B4F8687C401C6874C0B2696836
:1011500049682A6851F820101268284690472FE005
:10116000A868DFF88073808901280AD1386801F007
:1011700023FA2068C06A00F0CFFB386801F02BFA30
:1011800017E002280ED1386801F016FA2068C06A0C
:1011900000F066FB2068C06A00F0BEFB386801F012
:1011A0001AFA03E02068C06A00F08BFB206801F0A7
:1011B00065FEDFF84003006801F075FB022028742B
:1011C0000020307001E000284FD1A8684079002845
:1011D00018BF072804D1C34800680F2101F0D4F9D3
:1011E000A868407902281CBF0628102804D1BD48F1
:1011F0000068F02101F0C8F9A86841792068062943
:101200001DD101F04FFFA86881892068806B41865D
:1012100090F8362012B1103001F0C6FF2068C06B84
:1012200041F6FE71418690F8362012B1103001F07F
:10123000EAFF20680121BDE8F44001F041BF072921
:1012400011D101F02FFF2068806B41F6FE714186BD
:1012500090F8362012B1103001F0A6FFA8688189FD
:101260002068C06BDEE70021E5E7902813D12068F5
:10127000002101F025FF2068C06A00F022FB2068F1
:1012800001F0FCFD9B48006801F00DFB0220287472
:1012900000203070F1BD04287FF44BAFA86840797E
:1012A000072818BF06283FF444AF7F20F1E738B580
:1012B0000546012917D18D4C206801F05FFF58B118
:1012C000206801F0F6FE38B1206801F0E7FD287DC6
:1012D000002868D0092118E02068C06A002100F0C9
:1012E000CCFA012152E003291BD1804C206801F087
:1012F00045FF78B1206801F0DCFE58B1206801F0AC
:10130000CDFD287D00284ED00A212068BDE834405C
:1013100001F008BE2068C06A022100F0AEFA032185
:1013200034E0052916D1714C206801F027FF50B137
:10133000206801F0C0FE30B1206801F0BEFD687D7C
:1013400088B30B2117E02068C06A042100F095FAE9
:1013500005211BE0072926D1644C206801F00EFF0F
:1013600070B1206801F0A7FE50B1206801F0A5FD22
:10137000687DC0B10C212068BDE8344001F0FCBD9F
:101380002068C06A062100F078FA07212068C06A48
:1013900000F073FA206801F081FD56480068BDE84E
:1013A000324001F088BA31BD38B50446880021705A
:1013B00001F048FF606000202072142001F044FF1B
:1013C00018B1002141604C490160217A2278914294
:1013D00004D24A1C2272626842F82100142001F0F3
:1013E00033FF18B10021416044490160217A22781D
:1013F000914204D24A1C2272626842F821001820ED
:1014000001F022FF384D20B12968496841603C490C
:101410000160217A2278914204D24A1C22726268C9
:1014200042F82100182001F00FFF30B129688968C7
:1014300041603449016000210175217A227891428E
:1014400004D24A1C2272626842F82100182001F07E
:10145000FBFE20B12968496841602B490160217A6F
:101460002278914204D24A1C2272626842F821001A
:101470001C2001F0E9FE20B12968896841602349F8
:101480000160217A2278914204D24A1C2272626859
:1014900042F82100142001F0D7FE20B12968096824
:1014A00041601B490160217A2278914204D24A1C92
:1014B0002272626842F82100182001F0C5FE28B1AE
:1014C0000A490968C96A416012490160217A227893
:1014D000914204D24A1C2272626842F821002046DE
:1014E00032BD0000000000200C0000201000002091
:1014F0001500002004000020205A00084C5A000863
:10150000785A0008D05A0008A45A0008FC5A00086B
:10151000285B0008545B0008436853F82130C3601F
:1015200019745A74C06801680969084700BF30B46B
:10153000029D039C4171C380058144811178017033
:1015400012F8011F417012F8011F817012F8011F7B
:10155000C17012F8011F01710189818130BC70478F
:1015600038B50446207898B16079002100281CBF66
:101570000128062800D10121DFF8DC5C2868002260
:1015800001F02FF828682146BDE8344001F06AB820
:1015900031BD00002DE9F84304466079002816BFEC
:1015A000012800210121DFF8B05C2868002201F049
:1015B00018F86079112800F2D980DFE800F05F5F49
:1015C00009090B0BD7D70D1B293F55575F66738B46
:1015D000032354E0012352E0A08920B928680FF6C4
:1015E000904101F041F8A089012840F0BF800FF63A
:1015F00088416BE0A08920B928680FF6844101F08A
:1016000033F8A089012840F0B1800FF67C415DE0FD
:10161000A08920B928680FF6684101F025F8A08953
:10162000012804D128680FF6684101F01DF8A0894F
:10163000022840F09B800FF6504147E0A08920B976
:1016400028680FF6544101F00FF8A089012804D151
:1016500028680FF64C4101F007F8A089022840F0F5
:1016600085800FF6444131E0002308E0A189286815
:101670000123032201F005F82A2174E00223A18945
:101680002868042200F0FDFF70E0A08920B92868D6
:101690000FF61C4100F0E8FFA089012866D10FF683
:1016A000184113E0A08920B928680FF6044100F022
:1016B000DBFFA089012804D128680FF6FC3100F077
:1016C000D3FFA089022851D10FF6F431286800F029
:1016D000CBFF4BE0A0894FF4616190FBF1F14FF437
:1016E0006162CEB202FB110080B23C2190FBF1F7A7
:1016F000FFB2C7EB0711A0EB81005FFA80F8286802
:101700000222002100F06DFF0A2096FBF0F9286804
:101710005FFA89F100F06BFF09EB8900A6EB40004E
:10172000A0F180012868C9B200F061FF0A2097FB90
:10173000F0F62868F1B200F05AFF06EB8600A7EB3E
:101740004000A0F180012868C9B200F050FF0A20D3
:1017500098FBF0F62868F1B200F049FF06EB86002E
:10176000A8EB4001C9B2286800F041FF6079012868
:101770001CBF0328052812D1A189628991420ED38A
:1017800001280CBF002101212868002200F029FF58
:1017900028680FF6EC21BDE8F44300F065BFBDE812
:1017A000F18340790F2818BF082806D00E281CBFE7
:1017B0001028112801D0012070470020704781892E
:1017C000C2888A423CBF4289914202D38281012071
:1017D00070470020704770B44289C38893421AD082
:1017E00031B10A2A04DA00294CBF4FF0FF31012140
:1017F0004479112C05D14C1C032C24BF01EB41046E
:101800006100848909B20D0001D5A34203D20129E8
:1018100004DB944202D370BC00207047A34228BF6F
:10182000838103D2944288BF14468481848994FBC7
:10183000F1F601FB164636B2A41B0C1984811EB1C9
:10184000002944BF611A818181898B4228BF83812D
:1018500003D2914288BF1146818170BC012070473C
:10186000002106E0426852F8212013899381491C27
:10187000C9B2027A9142F5DB704770B505460E4653
:101880006868344650F82400FFF78BFFC0B1E86861
:10189000817A59B1314601F078FD696851F8242008
:1018A000908151F82400BDE8704088E7686850F8DE
:1018B00024000189818128463146BDE8704016E048
:1018C00070BD38B50446002504E029462046FFF7E0
:1018D000D4FF6D1C207AEDB28542F6D3E068817AA0
:1018E00021B901680968BDE83440084731BD70B5C9
:1018F00004460D4660682E4650F82600FFF751FF5B
:1019000048B1606850F826008289E0682946BDE841
:10191000704001F03DBD70BD70B5044600250FE07C
:1019200060682E4650F82600FFF73BFF38B160682C
:1019300050F826008289E068294601F029FD6D1CD7
:10194000207AEDB28542EBD3E06801680968BDE812
:1019500070400847F0B5044683B0102001F074FCD5
:10196000050008D0032028700C2001F06BFC686093
:101970000020287200E0002525600E2001F064FCA4
:1019800042F20F7560B14FF46161009101954FF41F
:101990007A730FF634120021FFF7C8FD014600E00C
:1019A0000021206801F0CFFD0E2001F04DFC50B168
:1019B0004FF47A61009101954FF47A730FF610128B
:1019C0000221FFF7B3FD0146206801F0BCFD0E20A7
:1019D00001F03AFC48B10FF6001201954FF47A710C
:1019E00000910A230421FFF7A1FD0146206801F0C0
:1019F000AAFD0C2001F028FC28B12168097A01F029
:101A000094FC014600E000212068C160FFF759FF07
:101A1000102001F019FC060008D0032030700C20C3
:101A200001F010FC70600020307200E0002666605B
:101A30000E2001F009FC40B14FF4FA7100910195BC
:101A400000231AA20021FFF771FD0146606801F032
:101A50007AFD0E2001F0F8FB40B101954FF47A7148
:101A60000091002311A20221FFF760FD014660688A
:101A700001F069FD0E2001F0E7FB40B10121019169
:101A800000230021009109A20921FFF74FFD014623
:101A9000606801F058FD0C2001F0D6FB40B1616890
:101AA000097A01F042FC014603E000BF000000009B
:101AB00000216068C160FFF704FF102001F0C4FB43
:101AC000060008D01D203070742001F0BBFB706050
:101AD0000020307200E00026A6600E2001F0B4FB6A
:101AE00040B100210191009100230FF2F47208210E
:101AF000FFF71CFD0146A06801F025FD0E2001F056
:101B0000A3FB40B10FF2D872012101910091012392
:101B10000821FFF70BFD0146A06801F014FD0E201F
:101B200001F092FB48B10FF2C07201210191002334
:101B3000002100910921FFF7F9FC0146A06801F09E
:101B400002FD0E2001F080FB48B10FF2A472019556
:101B50004FF46161009100230121FFF7E7FC01468A
:101B6000A06801F0F0FC0E2001F06EFB48B10FF20E
:101B7000887201954FF47A61009100230321FFF7E9
:101B8000D5FC0146A06801F0DEFC0E2001F05CFBF4
:101B900048B10FF26C7201954FF47A7100910023F5
:101BA0000521FFF7C3FC0146A06801F0CCFC0E2024
:101BB00001F04AFB50B10FF2507240F2E73101914F
:101BC0000023002100910C21FFF7B0FC0146A06822
:101BD00001F0B9FC0E2001F037FB58B10FF2307262
:101BE00040F2E7310191C8234FF4167100910D21A5
:101BF000FFF79CFC0146A06801F0A5FC0E2001F057
:101C000023FB58B10FF2107240F2E7310191C82363
:101C10004FF4E17100910D21FFF788FC0146A068A7
:101C200001F091FC0E2001F00FFB58B10FF2F062B1
:101C300040F2E7310191C82340F2262100910D21A5
:101C4000FFF774FC0146A06801F07DFC0E2001F056
:101C5000FBFA40B10FF2D062002101910091002304
:101C60000D21FFF763FC0146A06801F06CFC0E201B
:101C700001F0EAFA48B14FF620510191002300210A
:101C80000091B1A21121FFF751FC0146A06801F0BB
:101C90005AFC0E2001F0D8FA40B10FF294620221F2
:101CA0000191009100230A21FFF740FC0146A06842
:101CB00001F049FC0E2001F0C7FA48B10FF278623A
:101CC000012101910023002100910921FFF72EFC41
:101CD0000146A06801F037FC0E2001F0B5FA48B1CA
:101CE0000FF25C6201210191002300210091092182
:101CF000FFF71CFC0146A06801F025FC0E2001F056
:101D0000A3FA40B10FF2406201210191009100233A
:101D10000921FFF70BFC0146A06801F014FC0E201E
:101D200001F092FA48B10FF22862012101910023DB
:101D3000002100910921FFF7F9FB0146A06801F09D
:101D400002FC0E2001F080FA48B10FF20C62022171
:101D500001910023002100910B21FFF7E7FB0146D1
:101D6000A06801F0F0FB0E2001F06EFA48B10FF20E
:101D7000F052022101910023002100910B21FFF775
:101D8000D5FB0146A06801F0DEFB0E2001F05CFAF5
:101D900048B10FF2D452012101910023002100919A
:101DA0000921FFF7C3FB0146A06801F0CCFB0E2020
:101DB00001F04AFA48B10FF2B85201210191002313
:101DC000002100910921FFF7B1FB0146A06801F055
:101DD000BAFB0E2001F038FA48B10FF29C520121F3
:101DE00001910023002100910921FFF79FFB01468B
:101DF000A06801F0A8FB0E2001F026FA40B10FF216
:101E0000805202210191009100230A21FFF78EFBED
:101E10000146A06801F097FB0E2001F015FA48B1C9
:101E20000FF2645201210191002300210091092148
:101E3000FFF77CFBA1680A7A0B789A4204D2531C04
:101E40000B72496841F822000E2001F0FDF940B103
:101E500001210191009100230FF234520921FFF773
:101E600065FBA1680A7A0B789A4204D2531C0B7264
:101E7000496841F822000E2001F0E6F948B100213E
:101E800001910023CC2100910E210FF20C52FFF79B
:101E90004DFBA1680A7A0B789A4204D2531C0B724C
:101EA000496841F822000E2001F0CEF948B1012125
:101EB00001910023002100910F210FF2E442FFF76E
:101EC00035FBA1680A7A0B789A4204D2531C0B7234
:101ED000496841F822000E2001F0B6F948B101210D
:101EE00001910023002100910F210FF2BC42FFF766
:101EF0001DFBA1680A7A0B789A4204D2531C0B721C
:101F0000496841F822000E2001F09EF940B10121FC
:101F10000191009101230FF298420F21FFF706FB78
:101F2000A1680A7A0B789A4204D2531C0B72496852
:101F300041F822000C2001F087F938B1A168097A34
:101F400001F0F3F9014602E0742D00000021A068C1
:101F5000C160FFF7B6FC102001F076F910B1A021A6
:101F600001F08CFA6061817AA9B101F0BDFA616873
:101F70004A68126843045B0C9381A2685268526DF0
:101F80009289012A0CBFC00B0020207648680068A7
:101F9000FFF715FC0FE061684A68126813899381A6
:101FA0000022227649680968898901F0BBFA6069D4
:101FB0000168096888470C2001F046F910B10A2130
:101FC00001F0B3F9E0600C2001F03EF910B10A21F4
:101FD00001F0ABF92061E068807A00281EBF20691B
:101FE000807A002819D100259C4EEFB236F8022BDA
:101FF000E068394601F0CCF920694FF47A7239462D
:1020000001F0C6F96D1C0A2DEFDBE0680168096874
:1020100088472069016809688847204600F003F86E
:10202000204603B0F0BD10B50446216860684968D9
:102030004268096812688989518140680068FFF721
:10204000BEFB2168606849684268496852688989AE
:10205000518140684068FFF7B2FB2268A06852686F
:1020600041681268C96892894A814068C068FFF770
:10207000A6FB2168A0684968426849681269898995
:10208000518140680069FFF79AFB2168A0684968A0
:102090004268896852698989518140684069BDE810
:1020A0001040FFF78CBB10B50A4604461D2A51DAD2
:1020B000A068436853F8222092890B290ED0112979
:1020C00011D0122913D014291BD0152923D0162979
:1020D00028D017292DD01A2933D010BD60480068A8
:1020E0003030428210BD5E480068006B03E05C48FF
:1020F00000683030406880F8E6200021A0F8E41045
:1021000010BD574C206801F039F801462068BDE841
:10211000104000F0D5BF012A1CD152480068BDE82C
:10212000104029E050480068BDE81040D1B200F0EE
:1021300083BB4E490968501E8041C043C00FC8741C
:1021400010BD012A06D1FFF78BFBA068BDE8104047
:10215000FFF7E2BB10BD38B50446002503E0142D9F
:1021600018BF152D03D029462046FFF79CFF6D1C94
:10217000EDB21D2DF3DB31BD70B5044660684068DB
:10218000006885893648006800F0F8FF207608B1BD
:1021900045F40045304E306800F00EFA606929467B
:1021A00001F0C0F93068BDE8704000F014BA38B5ED
:1021B00004462B4D60684068006881892868806B00
:1021C00001F0CBF960684068406881892868C06B7D
:1021D00001F009F8217E2868BDE8344000F070BFA6
:1021E00038B50D4604460A2D19DAE06801F0CDF83D
:1021F00061684968096888812946206901F0C5F845
:1022000061684A685268908148680068FFF7D7FAA9
:10221000606840684068BDE83240FFF7D0BA31BD21
:1022200070B50E4604460A2E15DA0B4D286800F0EC
:10223000C3F96068406800688289E068314601F04F
:10224000A7F860684068406882892069314601F0DB
:102250009FF82868A7E770BD00000020185C000800
:10226000100000200C0000200400002008000020C6
:1022700043414C4C0000000053746F72000000009A
:10228000204F464600000000204F6E200000000056
:1022900020414C20000000002041472000000000A9
:1022A000205048200000000020504C20000000007A
:1022B000206E4F2000000000205945530000000010
:1022C00020644546000000002D744F5000000000BF
:1022D000744F502D000000007450502D000000007D
:1022E0005072452D00000000204C632D00000000BE
:1022F0002D4F5550000000004F43502D00000000AE
:102300004F50502D0000000064454C2D000000008F
:102310004F74502D00000000466E4C2D0000000050
:10232000466E482D000000004853742D0000000048
:102330007472632D00000000436F6E2D00000000DA
:1023400020502D20000000005345742D0000000097
:102350004745742D000000004150552D000000003D
:102360004150432D000000005072432D000000003A
:10237000646E502D000000004F75742D00000000A9
:10238000536E642D00000000456E722D00000000A9
:1023900053504C2D00000000496E462D00000000F7
:1023A0006445462D0000000043414C2D0000000014
:1023B0004553432D0000000010B5044604F10D0004
:1023C00001F0DCF8002104F10D0001F013F904F133
:1023D0000D0001F02AF90C2000F036FF10B10021A9
:1023E00001F0BAF96061002020766076A076E07690
:1023F000A0720120E0722073204600F0D1F8204640
:1024000010BDA1F130000A2838BF3039C9B21029F7
:102410005DDB202958D02A2954D0412928D04329CE
:102420002CD045292ED046292ED047292ED04829F8
:102430002ED049292ED04C292ED04F2932D05029C8
:1024400032D0532934D0552938D0592938D062296F
:1024500010D0632910D0642912D06E291ED06F29A4
:102460001ED0722922D0742924D0752924D02DE0C1
:102470000A212CE00B212AE00C2128E01B2126E078
:102480000D2124E00E2122E00F2120E010211EE08A
:1024900011211CE001211AE0122118E0132116E09D
:1024A000142114E0002112E0152110E016210EE0A5
:1024B00005210CE017210AE0182108E0192106E0A7
:1024C0001A2104E01C2102E01E2100E01D210FF270
:1024D000C420085C70472DE9F04104462848007884
:1024E00000284AD0274D2E783146204601F084F945
:1024F0008046375D30190679A07A70B3606901F0C3
:1025000047F938B16069C82101F036F9E07A80F006
:102510000100E072E07A00BB287828B102280FD0D1
:1025200008D3032812D018E0A07AC10748BF0027BB
:10253000C00610E0A07A810748BF002780060AE0A5
:10254000A07A410748BF0027400604E0A07A0107AF
:1025500048BF0027000648BF002646EA072040EA99
:10256000084104F10D0001F045F82878401C28705E
:10257000C0B2042804BF00202870BDE8F08100002C
:10258000140000204B00002010B50446802918BF1D
:10259000A1726069C82101F0EFF80020E07210BD5F
:1025A0000021017001714170417181708171C170B0
:1025B000C17101724172704710B50446002020734A
:1025C0000021204601F018F9010404F10D00BDE8D6
:1025D000104001F00FB80121017370470D3001F078
:1025E00035B80229BEBF042A01724272704770B525
:1025F00004460D46A07A0F21084201D0217A29B164
:10260000F021084209D0207A012806D10120E07289
:102610004FF44871606901F0AFF828064CBF2026DE
:10262000002605F07F012046FFF7EBFE217A801996
:1026300009B9617A0855217A012902D1617A09190B
:102640000871607A401C6072C0B2042809D1002071
:102650006072207A401C2072C0B2022804BF0020A1
:10266000207270BD38B500E038B504460D4604E070
:1026700015F8011B2046FFF7BAFF28780028F7D18C
:1026800031BDF0B583B004461546002946BF012090
:102690004942002000AA05260A2791FBF7F707EB1D
:1026A000870CA1EB4C0102F8011B0A2197FBF1F109
:1026B00001EB810CA7EB4C0702F8017B761EEBD1F6
:1026C00003F07F073A460A2AA8BF002200A9565CF9
:1026D00046F0800656542E1A5FEA036C48BFBE19B6
:1026E0000027F6B20A2E2BDA0DF1000E06EB0E0CC7
:1026F00008E01CF801EB4EEA07077F1EBF41FF43CD
:10270000FF0F761CF6B20A2EF3DBCFB1002600A82D
:10271000AE4234BF2D270027761CF6B20770AE42BA
:1027200034BF2D2700274770761C801CF6B20A2E76
:10273000EEDB180603D4505C40F0800050540020BB
:102740000A220DF1090302E0202603F80169521E56
:102750001E78002EF8D018B1521CD2B22D20505441
:10276000D2B2691E8A42B8BF6A1ED2B2501B00A9FB
:102770004018417801F07F01417045B100A816185A
:1027800016F801192046FFF732FF6D1EF8D103B08D
:10279000F0BD0000D714CE9E1D9BDB16DF9F5FD9D6
:1027A000C8DCCB4BD35DC158D84F48C9D0D59DC3E9
:1027B0000F08000010B50446022020720C2000F023
:1027C00043FD10B1002100F0C7FF6060012181725C
:1027D0002C48016841F40061016009212A48018503
:1027E00040F65F11818530210183002181862749D0
:1027F0000A8842F400420A800121018024480168CD
:1028000021F470010160016841F42001016020465B
:1028100010BD80B5406800F0BBFF28B11D4801889D
:102820004FF6FB721140018001BD1A4801884FF636
:10283000FB721140018070470172704710B50C4661
:102840001146027A022A0AD1406800F095FF124927
:10285000104891FBF4F1491E81810421018010BDD3
:1028600010B50C461146027A52B1406800F084FF60
:102870000949084891FBF4F1491E81810421018036
:1028800010BD000018100240002C0140442C0140F3
:10289000040C0140202C0140804F12006422FFE70D
:1028A0004FF47A71CAE764224FF4C861C6E7142274
:1028B0004FF4C871C2E74FF496724FF4B471BDE79C
:1028C00064224FF47A71CBE764224FF4C861C7E702
:1028D0004FF496724FF4B471C2E750F8041B61B123
:1028E00050F8042BD30744BFA9F101039A18002321
:1028F00042F8043B091FFAD1EFE770472DE9F04396
:10290000D0E90223DFF83468D0E900480327A6FBAA
:10291000015907FB0199AE1849EB030720464146D0
:102920000222002300F08EFF3018794122464346F0
:1029300000F088FF002848BF002005D44FF6F17151
:102940008842A8BF4FF6F07080B2BDE8F083F0B5C2
:10295000044683B0142000F077FC08B101F0CAF8F7
:10296000251D6860002084F84400082000F06CFCFD
:1029700008B101F0E1F960600121DFF8C407DFF878
:10298000C46741610168090909010160016841F0FA
:102990000801016002214161016821F0F00101603C
:1029A000016841F0200101604FF48050F060306810
:1029B00020F470203060306840F400203060F02057
:1029C00000F042FC08B101F039FAE862F02000F0B2
:1029D0003BFC08B101F048FA2863382000F034FCD1
:1029E000070008D00020788687F8360007F110002D
:1029F00001F050FA00E000276F63382000F024FC5B
:102A0000070008D00020788687F8360007F110000C
:102A100001F08CFA00E00027AF630C2000F014FCFA
:102A200010B1782100F098FE286100F0ABFE0C2078
:102A300000F00AFC10B1782100F08EFE686100F011
:102A4000A1FE0C2000F000FC10B1002100F084FE7B
:102A5000A8610C2000F0F8FB10B1002100F07CFE12
:102A6000E8610C2000F0F0FB10B1002100F074FED2
:102A700028620020E87228736873A8720C2000F0A6
:102A8000E3FB10B1002100F067FE68620121817252
:102A90000020E887DFF8B00601684907FCD47168B8
:102AA000C904F9D5102000F0CFFB060008D00D2096
:102AB0003070342000F0C6FB70600020307200E0FF
:102AC0000026AE620E2000F0BFFB60B140F2833101
:102AD000019101236421009100210FF2A462FEF70D
:102AE00025FD014600E00021A86A00F02CFD0E2023
:102AF00000F0AAFB4FF6F07648B10FF28C62019617
:102B000040F6B461009101230621FEF70FFD014656
:102B1000A86A00F018FD0E2000F096FB60B10FF2DD
:102B200070624FF4616101914FF4617340F6AC51F2
:102B300000910021FEF7FAFC0146A86A00F003FDAF
:102B40000E2000F081FB48B10FF24C6201964EF668
:102B50007321009101230621FEF7E8FC0146A86AD3
:102B600000F0F1FC0E2000F06FFB50B10FF210628C
:102B700040F2833101910123642100910221FEF78B
:102B8000D5FC0146A86A00F0DEFC0E2000F05CFBDC
:102B900048B10FF2F452019640F60F610091012303
:102BA0000721FEF7C3FC0146A86A00F0CCFC0E200A
:102BB00000F04AFB60B10FF2D8524FF47A610191F4
:102BC0004FF4617340F26C7100910221FEF7AEFC8C
:102BD0000146A86A00F0B7FC0E2000F035FB48B1B2
:102BE0000FF2B452019647F2C2610091012307210E
:102BF000FEF79CFC0146A86A00F0A5FC0E2000F040
:102C000023FB48B10FF298520221019100230021C9
:102C100000911021FEF78AFC0146A86A00F093FC9F
:102C20000E2000F011FB40B1019640F6B461009116
:102C30000123D0A20621FEF779FC0146A86A00F024
:102C400082FC0E2000F000FB40B101964EF673218D
:102C500000910123C7A20621FEF768FCA96A0A7A3F
:102C60000B789A4204D2531C0B72496841F8220037
:102C70000E2000F0E9FA40B140F60F610091019694
:102C80000123BCA20721FEF751FCA96A0A7A0B783E
:102C90009A4204D2531C0B72496841F822000E205C
:102CA00000F0D2FA40B147F2C261009101960123CF
:102CB000B0A20721FEF73AFCA96A0A7A0B789A4279
:102CC00004D2531C0B72496841F82200102000F016
:102CD000BBFA28B1A96A097A00F06DFB014600E051
:102CE0000021A86AC160FEF7ECFD204600F0D6F88E
:102CF000204600F0E2F80821204600F013F90821F0
:102D0000204600F039F9686B002101F057F9A86BF3
:102D1000002101F05DF9686B002101F063F9A86BF7
:102D2000012101F06FF9204603B0F0BD38B5DFF89E
:102D30001C542A6812685268126892890446E06A34
:102D4000416889684A8140688068FEF738FD50B163
:102D5000E06A406880688189A06BFFF7CFFDE16A77
:102D60004968C96888812968E06A096849684268D1
:102D7000496892698989518140688069FEF71FFD21
:102D800050B1E06A406880698189A06BFFF7B6FDA9
:102D9000E16A4968C969888131BD38B50446A068CF
:102DA00000F069FF04F10805A86A01F03BF9E86A40
:102DB00001F0F8F9204601F0B1FA204601F00AFBD3
:102DC000204601F053FBDFF88803DFF88823017801
:102DD000127832B1DFF880231268D2044CBF002190
:102DE000491C0170D8490968490702D40078332882
:102DF0001BDBDA4802210160D9480068FFF715FDA6
:102E0000D8480068FFF7EAFB4FF47A7000F08EFCB8
:102E100072B6BFF34F8FD448D44A016801F4E06121
:102E200011430160BFF34F8FFEE7286A00F0B0FC4A
:102E300028B1A87908B30121CA4800688176CC4836
:102E4000007800281CBFA879002816D0688FA0B190
:102E5000401E68870021C34800688176C821286A1F
:102E600000F08AFC688F40B9BD480068FFF716FD86
:102E70002046BDE83440002122E131BD10B50446B2
:102E800000F00CF8204600F018F80821204600F069
:102E900049F82046BDE8104008216DE02DE9F04FCB
:102EA000C16A4968CA688B684C68096892899B89BD
:102EB000A4898E89D0F838800DE02DE9F04FC16AE1
:102EC0004968CA698B694C69096992899B89A48997
:102ED0008E89D0F83C80121B981B92B2DFF85CA25E
:102EE00085B24FF0030BAAFB050102EBD27300275A
:102EF0000BFB051110EB53007941002300F0A2FCFD
:102F0000C8E900012246A2FB005902FB0199AAFB75
:102F100006010BFB0611281A69EB0101C8E9020141
:102F2000BDE8F08F2DE9F04F092903D1C16A496846
:102F3000496A04E00A2906D1C16A4968896A026BB4
:102F4000B2F8EC208A814FF0030BC16A49688A6AA3
:102F50008B684C6A096892899B89A4898E89D0F80C
:102F60003080121B981B92B2DFF8D0A185B2BAE76D
:102F700000000000000000002DE9F04F04460B297E
:102F800003D1E06A4068C06A04E00C2906D1E06A17
:102F90004068006B616BB1F8EC108181E06ADFF88A
:102FA0009CA140688269016B9389C26A0069898922
:102FB00085899789666B581BCA1B80B20321AAFBBF
:102FC000008992B201FB009902EBD270002118EB4C
:102FD000500049EB0101002300F034FCC6E9000178
:102FE0003A46A2FB008902FB0199504600230321C7
:102FF000A0FB05AB01FB05BBB8EB0A0069EB0B01BD
:10300000C6E90201D6E90089D6E902AB4046494645
:10301000022200F017FC1AEB00004BEB01014246C4
:103020004B4600F00FFC050048BF002505D44FF6C5
:10303000F1708542A8BF4FF6F0753046D0E90067C1
:10304000D0E90289304639460222002300F0FAFB1B
:1030500018EB000049EB0101464A10238018594142
:1030600032463B4600F0EEFB002848BF002005D466
:103070004FF6F1718842A8BF4FF6F070ADB280B242
:10308000C0EB450001B2002948BF0020A4F8400071
:10309000BDE8F08FB0F90C007047406800F0CCBE7E
:1030A000C07B7047C17B01F0F801C1737047007CA1
:1030B0007047007C01E0007C400800F00100704790
:1030C00070B504460E46A06B00F078FFE06B314609
:1030D00000F07EFF1D4D2849286882685268126DF5
:1030E0009289002A08BF002E19BF02220A6002221C
:1030F0004A60A6730676A07B1A4E30B92074002170
:10310000306881764176017670BD01202074286890
:103110008068406880698189E06900F02DFB28683B
:103120008068406880698189206A00F025FB3068EA
:1031300001218176BDE8704000F0DEBA7FD7F1460C
:10314000000C014004080140047000400C00002005
:103150004A0000201400002008080140140C01401F
:1031600004000020000000200CED00E00400FA053F
:10317000150000207B35B962100C0140807B704740
:1031800020503120000000002043312000000000CA
:1031900020503220000000002043322000000000B8
:1031A00053746F7200000000F0B44FF6F172914258
:1031B000A8BF4FF6F0710A0901F00F011023102487
:1031C000551C6FF00F061FB2112FA7BF3746AC4634
:1031D000002794467F18A0F802C0FB18801C641ECC
:1031E000F1D1F0BC704710B50446FFF787FB60864D
:1031F00094F8361031B1014604F11000BDE81040DA
:1032000000F001B810BDF0B44FF6F1729142A8BFC2
:103210004FF6F0710A0901F00F0110231024551C1C
:103220006FF00F061FB2112FA7BF3746AC4600271D
:1032300094467F18A0F802C0FB18801C641EF1D1D0
:10324000F0BC704700F000B810B5044601E001F092
:10325000A1F9204601F0A0F928B90348006801004F
:10326000F5D08047F5E710BD5000002080B501F093
:10327000ECF9974800210170818001BD38B541000B
:10328000934C6170800900F00E00A070192000F0CE
:1032900054FA01F015FAA07840F0A00001F018FAF5
:1032A00005000BD100F04EFA0028F2D001F073FABD
:1032B000207840F008002070284632BD607801F088
:1032C00007FAF9E710B5FFF7D9FF90B101F063FAFB
:1032D00001F0F6F97E48807840F0A10001F0F8F99D
:1032E000012001F029FA0446002001F025FA44EA01
:1032F000002010BD10B50C46FFF7C0FF48B1E0B28A
:1033000001F0E6F9200A01F0E3F9BDE8104001F010
:1033100042BA10BD38B504460D46FFF7D3FF8542CB
:1033200002D02946204643E031BD38B504466948FD
:10333000674D2060A888A080E180A08808182081BF
:103340000121401CA880A17280B2B0F5007F03DD8E
:10335000287840F0040009E02089FFF7B3FF4BF61E
:10336000D361884205D0287840F001002870002001
:10337000A072204632BD10B504464BF6D3612089B9
:10338000FFF7C8FF0120A07210BD80880818AEE0CA
:1033900038B51446C288914209D280880D18A8B267
:1033A000FFF790FF844202D02146A8B200E031BD71
:1033B000BDE834409EE770B50446FFF7B6FF4648C7
:1033C000434D2060A888A081401CA88080B2B0F541
:1033D000007F03DD287840F004000BE0A089FFF7B0
:1033E00071FF0646204600F011F8864206D0287884
:1033F00040F0020028700020A07201E0A07A18B905
:10340000287840F010002870204670BDF8B5334D84
:10341000334E0446286840F0400028600027012011
:10342000B06006E0A088381880B2FFF74BFF30602C
:103430007F1CE088BFB28742F4D33068296821F04E
:103440004001296080B2F2BD70B504464BF6D361ED
:103450002089FFF75FFF0120A0722046FFF7D6FF0B
:10346000A68905463046FFF72DFF854203D0294641
:103470003046FFF73FFF0120A07270BD10B5044633
:10348000FFF753FF174820600020A081A07A18B9E9
:103490000FE0A089401CA081A089E188884208D261
:1034A000A188401880B2FFF70DFF4FF6FF718842E8
:1034B000EFD0A089E188884204BF0020A081A07AD3
:1034C00020B90348017841F020010170204610BD69
:1034D00040000020445C0008505C000814100240CA
:1034E000003002405C5C000881888089401880B20E
:1034F000E8E638B50446A589681CA08180B2E28858
:10350000904204BF0020A081A088A289101880B238
:10351000FFF7F0FEA0882818BDE834404FF6FF7191
:1035200080B2E7E638B504460D46A088A1890818A0
:1035300080B2FFF7C7FEA84204D029462046BDE866
:103540003440D6E731BD027A03789A4204D2531C44
:103550000372406840F82210704710B50446FFF728
:10356000CDF9608694F8361031B1014604F11000AF
:10357000BDE81040FFF718BE10BD70472C48016829
:1035800021F470410160016841F43041016001683B
:1035900021F470010160016841F4300101604021B3
:1035A0000161016821F070610160016841F04071C2
:1035B0000160802101610168090109090160016858
:1035C00041F0C04101601B48016841F0007141F0C9
:1035D000010101601848016841F4805101604CF21A
:1035E0004431164801807047154802889207FCD57F
:1035F0008180704770B50446124E402070600D46C1
:10360000C9B22046FFF7F0FF2904090E2046FFF754
:10361000EBFF2902090E2046FFF7E6FF0848018864
:103620000906FCD44020306070BD074812E000005D
:10363000000C01400400014018100240003001401D
:1036400008300140100C0140140C0140004801E01A
:10365000100C014080210160704700005D48C16985
:1036600041F08051C161F0225B490A604A6852070B
:10367000FCD4416841F480114160016841F08071DF
:10368000016001688901FCD54168890889004160B1
:10369000416841F002014160416801F00C010829D4
:1036A000FAD10022816941F03D01816100214B483E
:1036B000C1604B49CA604FF08832026042600A60C4
:1036C0004A60484802604260474802604260704772
:1036D00046480021416045F6BF5145484160F0220F
:1036E00044490A70002181600721016070473F480A
:1036F0004168491C416070473C484168816070479F
:103700003B493A480968090C11F0010101700AD0DF
:1037100081684268521AB2F57A7F04D301F57A7152
:103720000122816000E00022427070472F494A6800
:103730004B689B1A8342FBD370472C494A68CA6086
:103740000861704729484168C2680069891A814246
:103750008041C043C00F704700BF00224272827296
:103760004A1E9241D20F02720160204949684160AD
:10377000704700210172F8E70160491E8941C90FB5
:103780000172F2E7194949680268891A4160704775
:1037900010B4827A154B59684468091B0468A14229
:1037A0000ED30121002A1EBF047A002C002101241F
:1037B0000472447A2CB15A6842600022027205E019
:1037C0000021002A02BF427A002A017A084610BC72
:1037D00070470000001002400070004000080140E7
:1037E000000C0140001001400014014014000020B2
:1037F00010E000E023ED00E0037B00227BB101B983
:103800000222012908BF42F0040208D0022908BFA1
:1038100042F0080203D0032908BF42F01002017EE3
:1038200009B142F08002417E09B142F04002817E3E
:1038300009B142F00102C07E08B142F020021046F8
:103840007047000013F0004C03D55B42524263F115
:1038500000039CEA210C00F0178010B5644603D3E6
:103860004942404261F1000100F00EF8640004D3C7
:103870004942404261F10001244203D55B42524279
:1038800063F1000310BD00001B4213D1094236D181
:103890002AB18446B0FBF2F002FB10C2704700F080
:1038A000A7BFFCD30022002370470B0002000021B9
:1038B00000207047904271EB030CF6D370B5B1FA5B
:1038C00081F4B3FA83F52C1BA340C4F1200532FA2E
:1038D00005F63343A2405FF00046E64002E05B0895
:1038E0005FEA3202841A71EB030524BF20462946A1
:1038F0007641F4D302000B003000002170BD012A94
:10390000CFD970B5140C20D0B1FA81F4B2FA82F597
:10391000C4F120046419B4F12006D6D3B2405FF09C
:103920000044F440002502E052085FEA3303C61A5F
:1039300071EB020E24BF3046714664416D41F3D3F2
:1039400002000B002000290070BD0C46B1FBF2F113
:1039500002FB11452D0445EA1045B5FBF2F402FBCC
:10396000145580B240EA0545B5FBF2F002FB105257
:1039700040EA044070BD000000BF01710022002138
:103980004171D5490A707047D3490A78042A1CBF8F
:103990000A78052A05D18A7882710A784271002056
:1039A00008707047CD480188490633D501884FF625
:1039B000BF7211400180C8490A78012A0CD182885F
:1039C0008A708A7802F07003702B03D0120648BF09
:1039D000042200D405220A700A78022A1AD18A78B1
:1039E00052088A7083889B074CBF802300231A43A8
:1039F0008A704A78521C4A70D2B2082A08DACA7809
:103A00005208CA70D1074CBFFF2100218180704746
:103A10000420087070470179AF4AB14BD1704FF460
:103A2000106CA3F804C019800021417101201070AE
:103A300070470179A84AAA4BD1704FF0900CA3F8B7
:103A400004C0C9074CBFFF2100211980002151701B
:103A5000417102201070704710B504468800217033
:103A6000FFF7F0FBA06000206070E070204610BD02
:103A7000427803789A4204D2531C4370806840F81D
:103A8000221070470021817001710321C17081787B
:103A9000806850F82100016809680847C178032947
:103AA00000D0704718B48368827853F822104C799C
:103AB000042C0BD1511C8170C9B24278914209D0BB
:103AC00053F821000168096814BC0847052C05D18A
:103AD000012101710421C17011BC7047084612BC5C
:103AE00052E7C178042903D10021C1700120704739
:103AF0000020704738B504467A48016821F47061A7
:103B00000160016841F460610160016821F4704165
:103B10000160016841F4804101607348016841F42B
:103B2000003101604FF410617048018042F24C0195
:103B30008180F0216E48017040216E4801600C20A8
:103B4000FFF782FB18B14FF44871FFF705FE606084
:103B5000012181720C20FFF777FB10B10321FFF7E1
:103B60007BFFA0600820FFF76FFB050005D0F02168
:103B7000FFF702FF6048286000E000252946A068A2
:103B8000FFF776FF0820FFF75FFB20B1CC2100F0A4
:103B900031FE014600E00021A068FFF769FF082020
:103BA000FFF752FB10B1442100F024FE0146A0684B
:103BB000FFF75EFF0C20FFF747FB10B10521FFF771
:103BC0004BFFE0600820FFF73FFB050005D0F02128
:103BD000FFF7D2FE4848286000E000252946E0684B
:103BE000FFF746FF0820FFF72FFB050005D0CC218B
:103BF000FFF7C2FE4148286000E000252946E06842
:103C0000FFF736FF0820FFF71FFB050005D0BE2198
:103C1000FFF7B2FE3948286000E000252946E06839
:103C2000FFF726FF0820FFF70FFB050005D0FF2157
:103C3000FFF7A2FE3148286000E000252946E06831
:103C4000FFF716FF0820FFF7FFFA050005D0FF2158
:103C5000FFF792FE2948286000E000252946E06829
:103C6000FFF706FF0020207425486082A068FFF758
:103C700009FF204632BD10B50446A068FFF70EFFCD
:103C8000A068FFF72EFF20B160684FF44871FFF77E
:103C900073FD6068FFF77CFD10B1E068FFF7F2FE8E
:103CA000E068FFF7FBFEE068FFF71BFF90B1A0683C
:103CB0000079002802BFE0680079002812BF104890
:103CC000204600F01FF8608201202074A068BDE843
:103CD0001040D7E6207410BD46000020004400408C
:103CE00004440040000801401C1002400844004009
:103CF00026E400E004E100E0685C0008745C000871
:103D000018FCFFFFC0688068C16800698979807904
:103D100041EA002000EB80014800C11000EB117067
:103D20000003001401D500207047B0F57A7FA8BFCA
:103D300040F2E7307047000038490A6842F48032A8
:103D40000A60002236490A854FF40043BB228A8567
:103D500000228A8668220A8301220A848A82314AE2
:103D6000138001220A80304A136843F00103136074
:103D70002E4A136823F070631360136843F01063D6
:103D800013600022C27042708A868270704738B415
:103D90001446274DAC4218BFAB420FD091420BDA0C
:103DA0009A420BDB8B420DDB5A1A4B235A43611AA2
:103DB00092FBF1F1193106E0994201DA642102E047
:103DC000934201DA00214170817811B101290CD0B0
:103DD0001AE041781A2906DB4621417001218170E1
:103DE0000521C17010E0002107E04178C27832B1AE
:103DF000521EC270192907DA1921417004E01929ED
:103E000002DA00214170817041786529A8BF6421E0
:103E100041700848018031BC704700001810024012
:103E200000400140444001401C000140040C01409E
:103E300018FCFFFF344001404078704710B504463D
:103E400004F1100000F0E0FC04F1DC0000218172BC
:103E50000181C172C4F8DC1081808181C1818171CE
:103E600001824182204610BD10B5044604F11000C5
:103E700000F02CFD04F1DC00002181720181C1728F
:103E8000C4F8DC1081808181C1818171018241820D
:103E9000204610BD1E490A6822F470020A604FF6DF
:103EA000FE730A680A601B498A6842F000528A6001
:103EB0000A6842F001020A608A6842F002028A60DF
:103EC00015490A881A400A8000220A8577228A85C5
:103ED000124A136843F440331360114A114B936044
:103EE000831CD3601023536042F2B15313608A8D58
:103EF0000D4B52081A8000238A8942F480528A812D
:103F000010224380801C521EFBD101200880704784
:103F100000080140141002400004004000740040FA
:103F20003000024014740040400400401D490A68FB
:103F300022F470220A604FF6FE730A680A601A497A
:103F40008A6842F000528A600A6842F001020A6000
:103F50008A6842F002028A6014490A881A400A807C
:103F600000220A8577228A85114A136843F00303E9
:103F70001360104A104B9360831CD360102353606E
:103F800042F2B153136000228A8700238A8942F4E7
:103F900000628A8110224380801C521EFBD10120C6
:103FA00008807047000801401410024000040040DF
:103FB000007400401C0002400874004000F232020D
:103FC0000029117114BF418E51881030FFF7ECB8F1
:103FD00000F232020029117114BF418E5188103055
:103FE000FFF711B910B50446FEF788FCA08694F8D7
:103FF000361031B9014604F11000BDE81040FFF75A
:10400000D3B810BD10B50446FEF778FCA08694F82E
:10401000361031B9014604F11000BDE81040FFF739
:10402000F2B810BD2DE9F04F05465A4801688901E4
:1040300040F1AA80002105F1100264235488611820
:10404000921C5B1EFAD1544ADFF8508113685B085A
:104050005B0013600126642353604FF000734360DC
:10406000106840F00100106008013230642190FBBC
:10407000F1F0A5F8E800D5E9009AB5F8E840D5E9EF
:10408000027B2046A0FB092300FB0A33D01B63EB15
:104090000B0110EB08007141414A0323FFF7D2FBEB
:1040A000002848BF002005D442F210718842A8BF02
:1040B00042F20F70A5F8EA00B5F8E40010B1401E16
:1040C000A5F8E400B5F8E010D5F8DC00491C20188C
:1040D00089B2B1F5A07F27D1A030B0FBF1F0A5F8EF
:1040E000EC0095F8E600D8B9B5F8EC00A0FB092380
:1040F00000FB0A33D01B63EB0B0110EB080071418E
:10410000274A0323FFF79EFB002848BF002005D461
:1041100042F210718842A8BF42F20F70A5F8EE007B
:104120000021002085F8E260A5F8E010C5F8DC0069
:1041300095F8E600012811D1B5F8EA10B5F8EE209F
:10414000914206D3A5F8EE104FF47A71A5F8E41069
:1041500004E0B5F8E4200AB9A5F8EE10022811D160
:10416000B5F8EA10B5F8EE00884206D3A5F8EE10CF
:104170004FF47A70A5F8E40004E0B5F8E40008B95B
:10418000A5F8EE10012000E0002085F8E700BDE86A
:10419000F08F00BF0000024080000240BFEB78A318
:1041A0007FD7F1462DE9F04F05465948016889034C
:1041B00040F1A980002105F11002642354886118A0
:1041C000921C5B1EFAD1826DDFF8488152085200C2
:1041D000826501266422C2654FF400324260826D1E
:1041E00042F00102826508013230642190FBF1F057
:1041F000A5F8E800D5E9009AB5F8E840D5E9027BD2
:104200002046A0FB092300FB0A33D01B63EB0B0104
:1042100010EB08007141404A0323FFF713FB00280D
:1042200048BF002005D442F210718842A8BF42F274
:104230000F70A5F8EA00B5F8E40010B1401EA5F82B
:10424000E400B5F8E010D5F8DC00491C201889B26C
:10425000B1F5A07F27D1A030B0FBF1F0A5F8EC00BC
:1042600095F8E600D8B9B5F8EC00A0FB092300FBEF
:104270000A33D01B63EB0B0110EB08007141264A97
:104280000323FFF7DFFA002848BF002005D442F2DD
:1042900010718842A8BF42F20F70A5F8EE0000210D
:1042A000002085F8E260A5F8E010C5F8DC0095F87C
:1042B000E600012811D1B5F8EA10B5F8EE209142D8
:1042C00006D3A5F8EE104FF47A71A5F8E41004E0D7
:1042D000B5F8E4200AB9A5F8EE10022811D1B5F816
:1042E000EA10B5F8EE00884206D3A5F8EE104FF4B8
:1042F0007A70A5F8E40004E0B5F8E40008B9A5F880
:10430000EE10012000E0002085F8E700BDE8F08F06
:1043100000000240BFEB78A37FD7F14670B504469A
:104320002848007800284BD0A07B002500283BD0EF
:1043300025480068C0074CBF02260126617C8E42DA
:104340000DD0F00744BFA069FFF713FAB00758BFBC
:10435000667406D56069FFF70CFA667405E0B0076D
:1043600003D46069FFF714FA00B90225F00703D4FB
:10437000A069FFF70DFA08B945F00105207C800718
:1043800005D4A80703D511480068FEF799FA207CE8
:1043900005F0010100F0010081F00101084303D1A3
:1043A0000A480068FEF790FA09482574217C0068E5
:1043B000490801F001014176217C01F001010176FB
:1043C00070BD00BF14000020080C01400400002054
:1043D000000000202DE9F0410446251D6868017C9D
:1043E000002937D0B0F912001D49288110F57A7FD5
:1043F000096889684968CA69B2F90C600A6A496A39
:10440000B2F90C70B1F90C8017D0A6F11E018142EF
:1044100013DAA87ADFF84C8018B113480068FEF769
:1044200057FAB5F9080086420BDA00212046FEF75C
:1044300047FEE87A40F0080002E0E87A00F0F70072
:10444000E872B5F90830606842463946FFF79FFCCC
:10445000012000E0002084F84400BDE8F08100BFA6
:104460000C00002018FCFFFF0400002038B50446B3
:10447000206B90F8E70038B3434D286880684068A7
:10448000C1688A8949898A421EDAA17BE1B13F4924
:104490000968096BB1F8EA10914210DBE069FFF797
:1044A00077F988B100212046FEF70AFE38480068F7
:1044B000FEF70EFAE07B40F00100E07304E0806953
:1044C0008189E069FFF758F9606B90F8E7000028F0
:1044D00059D02D4D28688068406801698A894989CA
:1044E0008A421EDAA17BE1B128490968496BB1F81B
:1044F000EA10914210DB206AFFF74AF988B10021E7
:104500002046FEF7DDFD22480068FEF7E1F9E07B7A
:1045100040F00200E07304E080698189206AFFF7BF
:104520002BF92868806840684269918952899142D4
:1045300029D2A27B3AB3154A1268536B126BB3F8B7
:10454000EA30B2F8EA205A4342F21073B2FBF3F2B7
:1045500092B28A4210D3606AFFF71AF998B100212B
:104560002046FEF7ADFD0A480068FEF7B1F9E07B92
:1045700040F00400E07331BD80698189606ABDE864
:104580003440FFF7F9B831BD0C00002010000020C6
:104590000400002000F000BA70B5054605F10F00D8
:1045A000C408E400C046C046A54232D2082C04D25A
:1045B000082402E0083000F0F3F9224802681100F4
:1045C0000CD1011D0A6802B31368A34238BF111D44
:1045D000F8D310E01D68A5420DD2191D0B68002B01
:1045E000F8D11268011D00E0191D0B6893420CD030
:1045F0001D68A542F8D361B10D682A68A2F10803CD
:10460000A3420AD26A680A600FE000F009FA0028A3
:10461000D0D1C046C046002070BD63190B60121B8C
:104620006E685E600B681A602C60096800291DBF07
:104630004A68002A091D00210160C046C04605F1F4
:10464000080070BD38000020704780B561484FF405
:104650008071C1600168090909010160016841F0C8
:10466000060101604FF40071C160016821F0F001A2
:104670000160016841F0600101605748016841F440
:10468000003101600021554801854FF6FF71818599
:104690000121018000F003F8BDE801407BE070B526
:1046A00009244FF480754E4E3068800507D4F560BC
:1046B00000F089F8B56000F086F8641EF4D170BD92
:1046C00080B50021474800F0C1F9BDE801407AE01B
:1046D0002DE9F041044608254FF48078404F424EC2
:1046E000C7F80C8020064CBF01210021301D00F0CE
:1046F000ADF9640000F067F8C7F8088000F063F8CF
:104700006D1EEDD10021304600F0AAF90121301DC7
:1047100000F09CF900F057F80121304600F0A0F9B4
:1047200000F051F83C6800F04EF8600A00F001001B
:1047300080F00100BDE8F0812DE9F84381460826AC
:10474000274F4FF400784FF48074FC60C7F808805E
:1047500000F039F8BC6000F036F86D0638682D0EB0
:10476000800548BF45F00105761EEED11E4E0021A2
:10477000304600F075F989F00101301D00F066F94E
:1047800000F021F80121304600F06AF900F01BF832
:104790002846BDE8F28310B5134C0021204600F0F6
:1047A0005FF90021201D00F051F900F00CF8012103
:1047B000204600F055F900F006F80121201D00F018
:1047C00045F9BDE8104009480021018001886629AB
:1047D000FCDB7047040C014018100240004401400B
:1047E000080C01402C000020280000202444014037
:1047F0007047000010B50446FFF7BEF8014820607E
:10480000204610BD745C00082B490A681201120989
:104810000A600A680A6029490A6842F480420A600C
:104820004A6942F400724A61254AD36843F480031E
:10483000D360536B43F49C1353634FF4A063136032
:104840004AF201035360536843F00803536053680E
:104850001B07FCD4536843F00403536053685B07A1
:10486000FCD44FF6FE7C8A6942F001028A61801C0A
:104870004FF0804213880CEA030313800023138552
:10488000EF239385202393800B6943F001030B6191
:104890000C490D4B8B60C8606420486042F2815027
:1048A0000860908D1087908940F480609081108816
:1048B00040F00100108070470008014004100240E1
:1048C0000424014080000240402401402D490A6830
:1048D00022F070620A600A680A602B490A6842F492
:1048E00080420A604A6942F400724A61274AD368EA
:1048F00043F40023D360536B43F4801343F4C05359
:1049000053634FF4A06313604AF20103536053688A
:1049100043F00803536053681B07FCD4536843F00B
:104920000403536053685B07FCD44FF6FE7C8A692E
:1049300042F001028A61801C4FF0804213880CEA29
:104940000303138000231385EF2393852023938093
:104950000B6943F001030B610D490E4B8B60C8607E
:104960006420486042F281500860908D4008908633
:10497000908940F400709081108840F00100108010
:10498000704700BF000801400410024004240140A9
:10499000580002403C240140012000F06BB80000A8
:1049A00000B9704710B5A0F108042068082833D377
:1049B00010F0070F30D1C046C0461848416809B111
:1049C0008C4203D26160446017E019464B680BB11A
:1049D000A342FAD30A6853189C421BD3A34204D1C2
:1049E00023689A180A600C4607E04A681AB12368DF
:1049F0001B199A420ED362604C60616851B1226803
:104A000013198B4206D100230360086880182060C8
:104A100048686060C046C04610BD000038000020F5
:104A20000749086808B1002070470648C008C00060
:104A300008600549C908C900091A0160704700BF2C
:104A4000540000205F0800205718002003484FF44E
:104A5000007209B10260704742607047100C01405B
:104A600003484FF4807209B102607047426070479A
:104A7000100C014080B5C046C046024A1100182003
:104A8000ABBEFBE72600020010B504462C20FEF763
:104A9000DBFB20B110224FF4964100F0A9FA206010
:104AA000204610BD2DE9F043044683B0206800F095
:104AB0007DFB050000F08182401E142800F2758203
:104AC000DFE810F0150017002800730273023700AA
:104AD00066007A00A600B800C9000D012901650131
:104AE0009B01C201DB01EC0119022A025B020121D8
:104AF0005CE2206800F08CFB0646012EC0F2598271
:104B0000206800F087FB0146206800F097FB761EC6
:104B1000F6D14EE20FF2B4414CC900A84CC000AE31
:104B20003178206800F08AFB16F8010F0028F7D1D1
:104B30003FE2206800F074FBDFF88474396849684C
:104B4000496809688881206800F06AFB396849680B
:104B50004A685268908148680068FCF730FE3868FF
:104B6000406840684068FCF72AFE206800F052FB6D
:104B70003968401E8041C043C00F0876DFF8440406
:104B80000068FEF78FFA3868FDF711FB00210DE28F
:104B90002068002100F052FBDFF824743868406878
:104BA00040680068B0F90C10206800F056FB3868C7
:104BB000406840684068F0E12068002100F03EFB5A
:104BC000DFF8006430680027FEF7D8FA00B101274B
:104BD0003068FEF76CFAC10748BF47F0020780074C
:104BE00048BF47F004073068FEF75AFAC10748BFCC
:104BF00047F00807810748BF47F01007410748BF43
:104C000047F02007000748BF47F040073946CDE18D
:104C10002068002100F012FBDFF8A8633068006B09
:104C2000B0F9EE10206800F018FB3068406BB0F966
:104C3000EE10B4E12068002100F000FBE14E306886
:104C4000006BB0F9EA10206800F007FB3068406B99
:104C5000B0F9EA10A3E1206800F0E2FAD84F396811
:104C60000968496809688881206800F0D9FA3968BC
:104C70000968496849688881206800F0D1FA396874
:104C800009684A689268908148680068FCF797FD57
:104C90003868006840684068FCF791FD3868006833
:104CA00040688068FCF78BFDC74E3068FDF784FCD8
:104CB000386800680021FCF71AFE38680068012196
:104CC000FCF715FE386800680221FCF710FE30681A
:104CD000FDF781FC3868FDF7A6F9002166E1206840
:104CE000002100F0ABFAB64F3868006840680068F1
:104CF000B0F90C10206800F0B0FA3868006840681D
:104D00004068B0F90C10206800F0A7FA3868006815
:104D10004068806841E1206800F07CFA064620681F
:104D20000A2E32DAA64F3968496849680A68496824
:104D3000B2F80C80B1F80C9000F072FA396849684A
:104D4000496809688881206800F06AFA396849680A
:104D50004A685268908148680068FCF730FD3868FE
:104D6000406840684068FCF72AFD38683146FDF726
:104D700057FA3868406841680968A1F80C8000213A
:104D800040684068A0F80C9010E104210FE1206811
:104D900000F040FA064620680A2E2CDA002100F0C6
:104DA0004DFA874F3868416849680A684968B2F81F
:104DB0000C80B1F80C903146FDF712FA3868406863
:104DC00040680068B0F90C10206800F046FA3868B6
:104DD000406840684068B0F90C10206800F03DFA67
:104DE0003868406841680968A1F80C8040684068EC
:104DF000A0F80C90DDE00421D9E0206800F00AFA68
:104E00000646172E1EDA0FF2D010365CB046B8F107
:104E1000FF0F17D0206800F003FA694F39688968DE
:104E20004A6852F828209081486850F82800FCF71A
:104E3000C6FC386880683146FCF759FD3868314651
:104E4000FDF731F90021B1E0206800F0E3F90646F2
:104E5000172E0CDA0FF28010365CFF2E07D0206878
:104E6000002100F0EBF956480068806892E0206865
:104E7000002100F0E3F9002191E02068002100F01A
:104E8000DDF9504E3068FEF708F90146206800F061
:104E9000D5F93068FEF7FEF8014680E0206800F0A2
:104EA000BFF90646206800F0BBF907464FF6F170DF
:104EB0001FFA86F88045A8BF4FF6F078BFB2874248
:104EC000A8BF4FF6F0773F4E3068806BA0F8328075
:104ED00090F8361019B1418E1030FEF765F9306840
:104EE000C06B478690F8361019B1418E1030FEF72E
:104EF0008AF900215AE02068002100F09FF9314E24
:104F00003068006BB0F9EC10206800F0A6F930684A
:104F1000406BB0F9EC1042E0206800F07BF90746E6
:104F200020680D2F27DA00F07BF9264E3168C96A18
:104F30004A6852F827209081486850F82700FCF70B
:104F40003EFCDFF88480D8F80000FDF735FB3068C0
:104F5000C06A3946FCF7CBFC3068C06AC06801689B
:104F600009688847D8F80000FDF735FB3068FDF781
:104F700085FF00211AE0042119E0206800F04AF9B9
:104F8000064620680D2E0EDA002100F057F90D4874
:104F90000068C06A406850F82600B0F90C1020681C
:104FA00000F05BF905E0042101E00421206800F035
:104FB00045F92068294600F06EF803B0BDE8F0839B
:104FC0000C000020100000200000002050534C2D49
:104FD00033363034000000000203040506070809D8
:104FE0000C0D0E0F101112131415161718190B00B3
:104FF00038B50D460446114600F06EF82D480460A1
:105000004FF400712C48C160016821F0F00101608B
:10501000016841F0A00101604FF48061C160016846
:1050200021F470610160016841F40061016023486E
:10503000016841F48041016021482249B1FBF5F14A
:10504000018042F22C018180F0211F480170202153
:105050001E480160204632BD10B51D4C82B020882C
:10506000800605D5A18813480068C9B200F04AF847
:10507000208800060ED50F48006800A900F033F91B
:1050800018B19DF80000A08013BD4FF67F71A08974
:105090000840A08113BD80B500AA00F0EFF80D48CC
:1050A0009DF800100180018941F08001018101BD5E
:1050B000000000004C0000200408014018100240CD
:1050C0000838014000366E0125E400E004E100E00C
:1050D000003801400438014038B5FFE704460D1D93
:1050E00084F828102846FEF7ADF820612846FEF720
:1050F000A9F86062002020700620207500206070F2
:10510000204632BD4278062A3CD0C02905D1012173
:10511000417001694160002102E0DB2902D10121D7
:105120008170704790F802C0BCF1000F08D0DD29F3
:1051300008BFDB2102D0DC2914D1C02100238370F9
:10514000012A06D01ED3032A1DD014D3042A27D047
:105150007047022242700A0607D5027801F07F01EB
:1051600091420AD000214170704700234268521CCE
:10517000426002F8013D032242704268521C4260C4
:1051800002F8011D70470422427090F828208A42DC
:1051900098BF114602698A1802F203028260ECE7A6
:1051A000426883689A42E8D10622E5E74278002106
:1051B000062A2BD181680269891AC91E01738221CE
:1051C0000269426013785BB9531C436008E00CF13C
:1051D000010343605B1E1B7859400FF26013C95CEA
:1051E0008368D0F804C06345F1D2521C42600029A4
:1051F0000CBF11780121002280F82020026902F200
:1052000003024260426A02F203028261084670476A
:10521000007B70474168491C416011F8010D7047DF
:105220004168491C4160491E42680978521C42602D
:1052300012F8010D41EA002000B2704700F1180297
:10524000137CD2F80CC080696344DB1C984203D203
:10525000401C106000F8011D704700F1180393F81E
:1052600010C0DB68826963449B1C9A4205D202F835
:10527000011B531C836108121070704730B483699E
:10528000C361446A1B1BDB1E80F82030631C8361F2
:10529000057845F080052570197090F82010597038
:1052A0008221436A8361047854B95B1C836107E0FF
:1052B0005B1C83615B1E1B7859400FF28003C95C45
:1052C0008369C469A342F3D319700378416A03B9AF
:1052D000491C816100214175417004210175C02084
:1052E000107030BC7047027D042A22D18269521CA2
:1052F0008261521E12780A70C02A18BFDB2A10D1B0
:10530000437D3BB9DB220A70012141758169491E49
:10531000816106E0C02A0CBFDC22DD220A70002178
:105320004175C169826991423CBF05210175012027
:10533000704706210175002070470000005EBCE246
:10534000613FDD83C29C7E20A3FD1F419DC3217F61
:10535000FCA2401E5F01E3BD3E6082DC237D9FC155
:10536000421CFEA0E1BF5D0380DE3C62BEE0025C49
:10537000DF81633D7C22C09E1D43A1FF4618FAA435
:1053800027799BC584DA3866E5BB5907DB85673921
:10539000BAE406581947A5FB7826C49A653BD98715
:1053A000045AB8E6A7F91B45C6987A24F8A6441A09
:1053B00099C7257B3A6486D85B05E7B98CD2306EF5
:1053C000EDB3510F4E10F2AC2F7193CD114FADF3E1
:1053D000702ECC92D38D6F31B2EC0E50AFF1134DD5
:1053E000CE90722C6D33D18F0C52B0EE326C8ED0C9
:1053F000530DEFB1F0AE4C1291CF2D73CA947628B5
:10540000ABF517490856B4EA6937D58B5709EBB5A0
:1054100036688AD495CB2977F4AA4816E9B7550B94
:1054200088D6346A2B7597C94A14F6A8742AC89688
:10543000154BA9F7B6E80A54D7896B3538B5044639
:10544000C820FEF773F9FDF711FF1C20FDF7FCFEE5
:1054500008B1FCF7B1FF964D28600C20FDF7F4FE73
:1054600008B1FDF7A7F968601820FDF7EDFE08B157
:1054700000F022F9A8601420FDF7E6FE08B100F064
:10548000BDF920604820FDF7DFFE08B1FDF75FFAA7
:1054900028611C20FDF7D8FE08B1FCF75BFAE86034
:1054A0001020FDF7D1FE10B10821FBF77DFFA060B1
:1054B0000C20FDF7C9FE10B10021FEF74DF9606028
:1054C00001218172E868FCF746FEE86840684068A0
:1054D00080688189481E80412968C043C00FC87612
:1054E0006868FDF7DBF97348007810B1012121737A
:1054F0001FE00220207300206073E8688068406825
:10550000006E808908B100202073206800F0CAF97D
:10551000012803D10620207300200AE0022803D1CD
:1055200006202073012004E0032803D10620207305
:1055300002206073627B217BA068FBF7EDFFA0680F
:10554000C068418A6068FEF717F9204632BD38B559
:10555000574D04462868FCF7BEFFA86800F0E2F843
:10556000206800F0BBF96868FDF753F92869FDF77A
:1055700014FCA068C168227B097C91420BD0217386
:10558000C268527C6273FBF7C7FFA068C068418A9B
:105590006068FEF7F1F8A068C0680168096A88478A
:1055A0002068407C8DF80000A868007D8DF801001F
:1055B000E868406840688068808930B99DF80100DB
:1055C00000EB800148008DF801009DF8000080B1DB
:1055D00000065CBF6868FDF761F900A9A068C068B3
:1055E000026852699047A068C068418A6068FEF707
:1055F000C3F89DF9010060B1A068C06802689269B3
:105600000DF101019047A068C068418A6068FEF70B
:10561000B3F86068FEF7BCF820B1A068C068016804
:10562000C969884700A9204600F088F99DF8000064
:10563000082813D1E8684068416889688A89511E42
:105640008941C9432A68C90F81F00101D1764268B6
:10565000926891810221FCF74AF912E0042814D1E2
:105660002869FDF78BFD80F001012869FDF728FD11
:10567000E86881684968496D8989012908BFFCF794
:105680007BFD00208DF8000005E020B100065CBF26
:105690006868FDF710F99DF9010010B16868FDF721
:1056A00006F9002120684174A868017531BD000029
:1056B000000000204000002010B504464D480121A4
:1056C00001610168090909010160016841F00801EF
:1056D000016002210161016821F0F00101600168AF
:1056E00041F08001016000202075A070E0706074BE
:1056F000A0740C20FDF7A8FD10B16421FEF72CF872
:10570000A060012141720C20FDF79EFD10B10A211D
:10571000FEF722F8E060FEF735F800202074E07410
:10572000204610BD10B50446A068FEF731F818B148
:10573000A07C60740020A07400202071E17C2E48C1
:10574000002901680AD0C9075CBF012121710068E6
:1057500080070ED4207940F0020009E0C9075CBF41
:10576000022121710068800703D4207940F00100F4
:105770002071A0782179814239D0E278914202D01B
:10578000A37C5B1CA37403282DD1012908BF022A26
:1057900010D1207C18B9E068FDF7FAFF38B1607CC1
:1057A0000E28ACBF0A200120207501202074E0687B
:1057B000FDF7DFFF2079022804BFE078012812D12D
:1057C000207C18B1E068FDF7E3FF48B1607C0E284B
:1057D000ACBF6FF009004FF0FF302075002020743F
:1057E000E068FDF7C6FFA078E0702079A07010BDDA
:1057F00000000000000801400808014010B5044600
:1058000049484FF40041C16001680901090901607C
:10581000016841F0004101604FF48051C1600168AE
:1058200021F470210160016841F4002101604FF40E
:105830008061C160016821F470610160016841F418
:10584000006101604FF40061C160016821F47041A2
:105850000160016841F4004101604FF480713348F8
:10586000C1600168090909010160016841F008018E
:1058700001600020607420740C20FDF7E5FC10B17D
:105880000021FDF769FFA060012181720C20FDF766
:10589000DBFC10B10021FDF75FFFE06001218172A8
:1058A000204610BD22490A680020120458BF01207A
:1058B0000A68D20458BF40F002000A68520558BF77
:1058C00040F004000968090558BF40F00800194974
:1058D0000968C90558BF40F01000704738B5044644
:1058E00015480078F0B12046FFF7DCFF0546207C24
:1058F00085420AD0A0683221FDF73EFFE0684FF4F0
:105900007A71FDF739FF257431BD5DB1A068FDF7EF
:105910003FFF00B16574E068FDF73AFF10B1A5F1F3
:105920008000607431BD0000040C01400408014097
:10593000080C0140080801401400002038B5044656
:105940000D46207B032818BF072841D02148006955
:10595000FDF7A6FB010715D5207B05280CD00520F7
:1059600020738722872060730521A068FBF7D4FD90
:1059700060680021FDF700FF2878042828D17F20E7
:10598000287031BD810706D5207B052820D0052051
:105990002073842010E0C10706D5207B052817D08E
:1059A00005202073832007E0400711D5207B0528C0
:1059B0000ED005202073852060730246A068052163
:1059C000FBF7AAFD6068BDE834400021FDF7D4BEB6
:1059D00031BD00BF0000002010B5FDF779FE10209A
:1059E000FDF732FC08B1FFF729FD0A4C20600420C6
:1059F000FDF72AFC08B1FFF747F86060FDF77CFE71
:105A0000FDF77EFE2068FFF7A2FD6068FFF74AF809
:105A1000F6E700BF3000002000000000000000009A
:105A2000210100085B01000891010008C101000884
:105A3000FB0100083102000833020008EB010008F6
:105A40007B35000800000000000000002101000874
:105A50005B01000891010008C1010008370200083D
:105A60008D02000899020008EB0100087B35000850
:105A70000000000000000000210100085B01000898
:105A800087070008C1010008B302000835050008B7
:105A90008F0600085B070008E50200080000000010
:105AA0000000000021010008E7080008270900089D
:105AB00057090008030800082108000875080008B5
:105AC000EB0100087B35000800000000000000002A
:105AD000210100085B01000891010008C1010008D4
